{
  "_format": "hh-sol-artifact-1",
  "contractName": "SlamPost",
  "sourceName": "contracts/SlamPost.sol",
  "abi": [
    {
      "inputs": [],
      "stateMutability": "nonpayable",
      "type": "constructor"
    },
    {
      "anonymous": false,
      "inputs": [
        {
          "indexed": false,
          "internalType": "uint256",
          "name": "index",
          "type": "uint256"
        },
        {
          "indexed": true,
          "internalType": "address",
          "name": "from",
          "type": "address"
        },
        {
          "indexed": false,
          "internalType": "string",
          "name": "message",
          "type": "string"
        },
        {
          "indexed": false,
          "internalType": "uint256",
          "name": "timestamp",
          "type": "uint256"
        },
        {
          "indexed": false,
          "internalType": "uint256",
          "name": "voteCount",
          "type": "uint256"
        }
      ],
      "name": "NewPost",
      "type": "event"
    },
    {
      "inputs": [
        {
          "internalType": "uint256",
          "name": "ideaIndex",
          "type": "uint256"
        }
      ],
      "name": "downVote",
      "outputs": [],
      "stateMutability": "nonpayable",
      "type": "function"
    },
    {
      "inputs": [],
      "name": "getAllPosts",
      "outputs": [
        {
          "components": [
            {
              "internalType": "uint256",
              "name": "index",
              "type": "uint256"
            },
            {
              "internalType": "address",
              "name": "poster",
              "type": "address"
            },
            {
              "internalType": "string",
              "name": "message",
              "type": "string"
            },
            {
              "internalType": "uint256",
              "name": "timestamp",
              "type": "uint256"
            },
            {
              "internalType": "uint256",
              "name": "voteCount",
              "type": "uint256"
            }
          ],
          "internalType": "struct SlamPost.Post[]",
          "name": "",
          "type": "tuple[]"
        }
      ],
      "stateMutability": "view",
      "type": "function"
    },
    {
      "inputs": [],
      "name": "getTotalPosts",
      "outputs": [
        {
          "internalType": "uint256",
          "name": "",
          "type": "uint256"
        }
      ],
      "stateMutability": "view",
      "type": "function"
    },
    {
      "inputs": [
        {
          "internalType": "string",
          "name": "_message",
          "type": "string"
        }
      ],
      "name": "post",
      "outputs": [],
      "stateMutability": "nonpayable",
      "type": "function"
    },
    {
      "inputs": [
        {
          "internalType": "uint256",
          "name": "ideaIndex",
          "type": "uint256"
        }
      ],
      "name": "upVote",
      "outputs": [],
      "stateMutability": "nonpayable",
      "type": "function"
    },
    {
      "inputs": [],
      "name": "userVotedOn",
      "outputs": [
        {
          "components": [
            {
              "internalType": "uint256",
              "name": "index",
              "type": "uint256"
            },
            {
              "internalType": "address",
              "name": "poster",
              "type": "address"
            },
            {
              "internalType": "string",
              "name": "message",
              "type": "string"
            },
            {
              "internalType": "uint256",
              "name": "timestamp",
              "type": "uint256"
            },
            {
              "internalType": "uint256",
              "name": "voteCount",
              "type": "uint256"
            }
          ],
          "internalType": "struct SlamPost.Post",
          "name": "",
          "type": "tuple"
        }
      ],
      "stateMutability": "view",
      "type": "function"
    },
    {
      "inputs": [
        {
          "internalType": "address",
          "name": "",
          "type": "address"
        }
      ],
      "name": "voters",
      "outputs": [
        {
          "internalType": "uint256",
          "name": "voted_on",
          "type": "uint256"
        },
        {
          "internalType": "bool",
          "name": "voted",
          "type": "bool"
        }
      ],
      "stateMutability": "view",
      "type": "function"
    }
  ],
  "bytecode": "0x60806040523480156200001157600080fd5b506200005d6040518060400160405280601b81526020017f536c616d20506f737420686173206265656e206465706c6f79656400000000008152506200006360201b62000b601760201c565b620001f7565b62000103816040516024016200007a919062000170565b6040516020818303038152906040527f41304fac000000000000000000000000000000000000000000000000000000007bffffffffffffffffffffffffffffffffffffffffffffffffffffffff19166020820180517bffffffffffffffffffffffffffffffffffffffffffffffffffffffff83818316178352505050506200010660201b60201c565b50565b60008151905060006a636f6e736f6c652e6c6f679050602083016000808483855afa5050505050565b60006200013c8262000194565b6200014881856200019f565b93506200015a818560208601620001b0565b6200016581620001e6565b840191505092915050565b600060208201905081810360008301526200018c81846200012f565b905092915050565b600081519050919050565b600082825260208201905092915050565b60005b83811015620001d0578082015181840152602081019050620001b3565b83811115620001e0576000848401525b50505050565b6000601f19601f8301169050919050565b6117f680620002076000396000f3fe608060405234801561001057600080fd5b506004361061007d5760003560e01c806382e66a8a1161005b57806382e66a8a146100da5780638ee93cf3146100f8578063a3ec138d14610114578063ec859db5146101455761007d565b80631ae9392d14610082578063305611001461009e5780635fe226b4146100bc575b600080fd5b61009c60048036038101906100979190610f41565b610161565b005b6100a6610396565b6040516100b391906112ab565b60405180910390f35b6100c46104fb565b6040516100d19190611406565b60405180910390f35b6100e2610504565b6040516100ef91906113e4565b60405180910390f35b610112600480360381019061010d9190610f00565b610778565b005b61012e60048036038101906101299190610ed7565b61091a565b60405161013c929190611421565b60405180910390f35b61015f600480360381019061015a9190610f41565b61094b565b005b61019f6040518060400160405280601281526020017f646f776e566f74652069646561496e6465780000000000000000000000000000815250610b60565b60006101a9610504565b90506000600260003373ffffffffffffffffffffffffffffffffffffffff1673ffffffffffffffffffffffffffffffffffffffff16815260200190815260200160002090508060010160009054906101000a900460ff1661023f576040517f08c379a000000000000000000000000000000000000000000000000000000000815260040161023690611364565b60405180910390fd5b6102826040518060400160405280600f81526020017f73656e6465722e766f7465645f6f6e00000000000000000000000000000000008152508260000154610bf9565b816000015181600001541461029657600080fd5b60018054905083106102dd576040517f08c379a00000000000000000000000000000000000000000000000000000000081526004016102d4906113a4565b60405180910390fd5b60008160010160006101000a81548160ff02191690831515021790555082816000018190555060005b600180549050811015610390578381141561037d5760018181548110610355577f4e487b7100000000000000000000000000000000000000000000000000000000600052603260045260246000fd5b906000526020600020906005020160040160008154809291906103779061164f565b91905055505b8080610388906116ab565b915050610306565b50505050565b60606001805480602002602001604051908101604052809291908181526020016000905b828210156104f257838290600052602060002090600502016040518060a0016040529081600082015481526020016001820160009054906101000a900473ffffffffffffffffffffffffffffffffffffffff1673ffffffffffffffffffffffffffffffffffffffff1673ffffffffffffffffffffffffffffffffffffffff16815260200160028201805461044d90611679565b80601f016020809104026020016040519081016040528092919081815260200182805461047990611679565b80156104c65780601f1061049b576101008083540402835291602001916104c6565b820191906000526020600020905b8154815290600101906020018083116104a957829003601f168201915b5050505050815260200160038201548152602001600482015481525050815260200190600101906103ba565b50505050905090565b60008054905090565b61050c610d5d565b600260003373ffffffffffffffffffffffffffffffffffffffff1673ffffffffffffffffffffffffffffffffffffffff16815260200190815260200160002060010160009054906101000a900460ff1661059b576040517f08c379a000000000000000000000000000000000000000000000000000000000815260040161059290611384565b60405180910390fd5b6105a3610d5d565b60005b6001805490508110156107705780600260003373ffffffffffffffffffffffffffffffffffffffff1673ffffffffffffffffffffffffffffffffffffffff16815260200190815260200160002060000154141561075d5760018181548110610637577f4e487b7100000000000000000000000000000000000000000000000000000000600052603260045260246000fd5b90600052602060002090600502016040518060a0016040529081600082015481526020016001820160009054906101000a900473ffffffffffffffffffffffffffffffffffffffff1673ffffffffffffffffffffffffffffffffffffffff1673ffffffffffffffffffffffffffffffffffffffff1681526020016002820180546106c090611679565b80601f01602080910402602001604051908101604052809291908181526020018280546106ec90611679565b80156107395780601f1061070e57610100808354040283529160200191610739565b820191906000526020600020905b81548152906001019060200180831161071c57829003601f168201915b50505050508152602001600382015481526020016004820154815250509150610770565b8080610768906116ab565b9150506105a6565b508091505090565b6107b86040518060400160405280601581526020017f257320706f737420772f206d65737361676520257300000000000000000000008152503383610c95565b60016040518060a0016040528060005481526020013373ffffffffffffffffffffffffffffffffffffffff168152602001838152602001428152602001600081525090806001815401808255809150506001900390600052602060002090600502016000909190919091506000820151816000015560208201518160010160006101000a81548173ffffffffffffffffffffffffffffffffffffffff021916908373ffffffffffffffffffffffffffffffffffffffff1602179055506040820151816002019080519060200190610890929190610da2565b50606082015181600301556080820151816004015550503373ffffffffffffffffffffffffffffffffffffffff167fe535a02a01920b38061e7785d5f3d4688d895a51cc21bb9e09b59a11d3befcfb600054834260006040516108f6949392919061144a565b60405180910390a26001600080828254610910919061155d565b9250508190555050565b60026020528060005260406000206000915090508060000154908060010160009054906101000a900460ff16905082565b6109896040518060400160405280601081526020017f7570566f74652069646561496e64657800000000000000000000000000000000815250610b60565b6000600260003373ffffffffffffffffffffffffffffffffffffffff1673ffffffffffffffffffffffffffffffffffffffff16815260200190815260200160002090508060010160009054906101000a900460ff1615610a1e576040517f08c379a0000000000000000000000000000000000000000000000000000000008152600401610a15906113c4565b60405180910390fd5b6001805490508210610a65576040517f08c379a0000000000000000000000000000000000000000000000000000000008152600401610a5c906113a4565b60405180910390fd5b60018160010160006101000a81548160ff021916908315150217905550610ac56040518060400160405280600f81526020017f73656e6465722e766f7465645f6f6e00000000000000000000000000000000008152508260000154610bf9565b81816000018190555060005b600180549050811015610b5b5782811415610b485760018181548110610b20577f4e487b7100000000000000000000000000000000000000000000000000000000600052603260045260246000fd5b90600052602060002090600502016004016000815480929190610b42906116ab565b91905055505b8080610b53906116ab565b915050610ad1565b505050565b610bf681604051602401610b7491906112cd565b6040516020818303038152906040527f41304fac000000000000000000000000000000000000000000000000000000007bffffffffffffffffffffffffffffffffffffffffffffffffffffffff19166020820180517bffffffffffffffffffffffffffffffffffffffffffffffffffffffff8381831617835250505050610d34565b50565b610c918282604051602401610c0f929190611334565b6040516020818303038152906040527f9710a9d0000000000000000000000000000000000000000000000000000000007bffffffffffffffffffffffffffffffffffffffffffffffffffffffff19166020820180517bffffffffffffffffffffffffffffffffffffffffffffffffffffffff8381831617835250505050610d34565b5050565b610d2f838383604051602401610cad939291906112ef565b6040516020818303038152906040527fe0e9ad4f000000000000000000000000000000000000000000000000000000007bffffffffffffffffffffffffffffffffffffffffffffffffffffffff19166020820180517bffffffffffffffffffffffffffffffffffffffffffffffffffffffff8381831617835250505050610d34565b505050565b60008151905060006a636f6e736f6c652e6c6f679050602083016000808483855afa5050505050565b6040518060a0016040528060008152602001600073ffffffffffffffffffffffffffffffffffffffff1681526020016060815260200160008152602001600081525090565b828054610dae90611679565b90600052602060002090601f016020900481019282610dd05760008555610e17565b82601f10610de957805160ff1916838001178555610e17565b82800160010185558215610e17579182015b82811115610e16578251825591602001919060010190610dfb565b5b509050610e249190610e28565b5090565b5b80821115610e41576000816000905550600101610e29565b5090565b6000610e58610e53846114c7565b611496565b905082815260208101848484011115610e7057600080fd5b610e7b84828561160d565b509392505050565b600081359050610e9281611792565b92915050565b600082601f830112610ea957600080fd5b8135610eb9848260208601610e45565b91505092915050565b600081359050610ed1816117a9565b92915050565b600060208284031215610ee957600080fd5b6000610ef784828501610e83565b91505092915050565b600060208284031215610f1257600080fd5b600082013567ffffffffffffffff811115610f2c57600080fd5b610f3884828501610e98565b91505092915050565b600060208284031215610f5357600080fd5b6000610f6184828501610ec2565b91505092915050565b6000610f7683836111a1565b905092915050565b610f87816115b3565b82525050565b610f96816115b3565b82525050565b6000610fa782611507565b610fb1818561152a565b935083602082028501610fc3856114f7565b8060005b85811015610fff5784840389528151610fe08582610f6a565b9450610feb8361151d565b925060208a01995050600181019050610fc7565b50829750879550505050505092915050565b61101a816115c5565b82525050565b611029816115fb565b82525050565b600061103a82611512565b611044818561153b565b935061105481856020860161161c565b61105d81611781565b840191505092915050565b600061107382611512565b61107d818561154c565b935061108d81856020860161161c565b61109681611781565b840191505092915050565b60006110ae600e8361154c565b91507f486173206e6f7420766f7465642e0000000000000000000000000000000000006000830152602082019050919050565b60006110ee600d8361154c565b91507f486173206e6f7420766f746564000000000000000000000000000000000000006000830152602082019050919050565b600061112e60188361154c565b91507f49646561496e64657820646f6573206e6f7420657869737400000000000000006000830152602082019050919050565b600061116e600a8361154c565b91507f48617320766f7465642e000000000000000000000000000000000000000000006000830152602082019050919050565b600060a0830160008301516111b9600086018261128d565b5060208301516111cc6020860182610f7e565b50604083015184820360408601526111e4828261102f565b91505060608301516111f9606086018261128d565b50608083015161120c608086018261128d565b508091505092915050565b600060a08301600083015161122f600086018261128d565b5060208301516112426020860182610f7e565b506040830151848203604086015261125a828261102f565b915050606083015161126f606086018261128d565b506080830151611282608086018261128d565b508091505092915050565b611296816115f1565b82525050565b6112a5816115f1565b82525050565b600060208201905081810360008301526112c58184610f9c565b905092915050565b600060208201905081810360008301526112e78184611068565b905092915050565b600060608201905081810360008301526113098186611068565b90506113186020830185610f8d565b818103604083015261132a8184611068565b9050949350505050565b6000604082019050818103600083015261134e8185611068565b905061135d602083018461129c565b9392505050565b6000602082019050818103600083015261137d816110a1565b9050919050565b6000602082019050818103600083015261139d816110e1565b9050919050565b600060208201905081810360008301526113bd81611121565b9050919050565b600060208201905081810360008301526113dd81611161565b9050919050565b600060208201905081810360008301526113fe8184611217565b905092915050565b600060208201905061141b600083018461129c565b92915050565b6000604082019050611436600083018561129c565b6114436020830184611011565b9392505050565b600060808201905061145f600083018761129c565b81810360208301526114718186611068565b9050611480604083018561129c565b61148d6060830184611020565b95945050505050565b6000604051905081810181811067ffffffffffffffff821117156114bd576114bc611752565b5b8060405250919050565b600067ffffffffffffffff8211156114e2576114e1611752565b5b601f19601f8301169050602081019050919050565b6000819050602082019050919050565b600081519050919050565b600081519050919050565b6000602082019050919050565b600082825260208201905092915050565b600082825260208201905092915050565b600082825260208201905092915050565b6000611568826115f1565b9150611573836115f1565b9250827fffffffffffffffffffffffffffffffffffffffffffffffffffffffffffffffff038211156115a8576115a76116f4565b5b828201905092915050565b60006115be826115d1565b9050919050565b60008115159050919050565b600073ffffffffffffffffffffffffffffffffffffffff82169050919050565b6000819050919050565b6000611606826115f1565b9050919050565b82818337600083830152505050565b60005b8381101561163a57808201518184015260208101905061161f565b83811115611649576000848401525b50505050565b600061165a826115f1565b9150600082141561166e5761166d6116f4565b5b600182039050919050565b6000600282049050600182168061169157607f821691505b602082108114156116a5576116a4611723565b5b50919050565b60006116b6826115f1565b91507fffffffffffffffffffffffffffffffffffffffffffffffffffffffffffffffff8214156116e9576116e86116f4565b5b600182019050919050565b7f4e487b7100000000000000000000000000000000000000000000000000000000600052601160045260246000fd5b7f4e487b7100000000000000000000000000000000000000000000000000000000600052602260045260246000fd5b7f4e487b7100000000000000000000000000000000000000000000000000000000600052604160045260246000fd5b6000601f19601f8301169050919050565b61179b816115b3565b81146117a657600080fd5b50565b6117b2816115f1565b81146117bd57600080fd5b5056fea26469706673582212201a88662f32873b1a756b05bff0049c20d728aad7fc45949d647509daff9740b864736f6c63430008000033",
  "linkReferences": {},
  "deployedLinkReferences": {}
}