{
  "_format": "hh-sol-artifact-1",
  "contractName": "SlamPost",
  "sourceName": "contracts/SlamPost.sol",
  "abi": [
    {
      "inputs": [],
      "stateMutability": "nonpayable",
      "type": "constructor"
    },
    {
      "anonymous": false,
      "inputs": [
        {
          "indexed": false,
          "internalType": "uint256",
          "name": "index",
          "type": "uint256"
        },
        {
          "indexed": true,
          "internalType": "address",
          "name": "from",
          "type": "address"
        },
        {
          "indexed": false,
          "internalType": "string",
          "name": "message",
          "type": "string"
        },
        {
          "indexed": false,
          "internalType": "uint256",
          "name": "timestamp",
          "type": "uint256"
        },
        {
          "indexed": false,
          "internalType": "uint256",
          "name": "voteCount",
          "type": "uint256"
        }
      ],
      "name": "NewPost",
      "type": "event"
    },
    {
      "inputs": [],
      "name": "getAllPosts",
      "outputs": [
        {
          "components": [
            {
              "internalType": "uint256",
              "name": "index",
              "type": "uint256"
            },
            {
              "internalType": "address",
              "name": "poster",
              "type": "address"
            },
            {
              "internalType": "string",
              "name": "message",
              "type": "string"
            },
            {
              "internalType": "uint256",
              "name": "timestamp",
              "type": "uint256"
            },
            {
              "internalType": "uint256",
              "name": "voteCount",
              "type": "uint256"
            }
          ],
          "internalType": "struct SlamPost.Post[]",
          "name": "",
          "type": "tuple[]"
        }
      ],
      "stateMutability": "view",
      "type": "function"
    },
    {
      "inputs": [],
      "name": "getTotalPosts",
      "outputs": [
        {
          "internalType": "uint256",
          "name": "",
          "type": "uint256"
        }
      ],
      "stateMutability": "view",
      "type": "function"
    },
    {
      "inputs": [
        {
          "internalType": "string",
          "name": "_message",
          "type": "string"
        }
      ],
      "name": "post",
      "outputs": [],
      "stateMutability": "nonpayable",
      "type": "function"
    },
    {
      "inputs": [
        {
          "internalType": "uint256",
          "name": "ideaIndex",
          "type": "uint256"
        }
      ],
      "name": "unvote",
      "outputs": [],
      "stateMutability": "nonpayable",
      "type": "function"
    },
    {
      "inputs": [],
      "name": "userVotedOn",
      "outputs": [
        {
          "components": [
            {
              "internalType": "uint256",
              "name": "index",
              "type": "uint256"
            },
            {
              "internalType": "address",
              "name": "poster",
              "type": "address"
            },
            {
              "internalType": "string",
              "name": "message",
              "type": "string"
            },
            {
              "internalType": "uint256",
              "name": "timestamp",
              "type": "uint256"
            },
            {
              "internalType": "uint256",
              "name": "voteCount",
              "type": "uint256"
            }
          ],
          "internalType": "struct SlamPost.Post",
          "name": "",
          "type": "tuple"
        }
      ],
      "stateMutability": "view",
      "type": "function"
    },
    {
      "inputs": [
        {
          "internalType": "uint256",
          "name": "ideaIndex",
          "type": "uint256"
        }
      ],
      "name": "vote",
      "outputs": [],
      "stateMutability": "nonpayable",
      "type": "function"
    },
    {
      "inputs": [
        {
          "internalType": "address",
          "name": "",
          "type": "address"
        }
      ],
      "name": "voters",
      "outputs": [
        {
          "internalType": "uint256",
          "name": "voted_on",
          "type": "uint256"
        },
        {
          "internalType": "bool",
          "name": "voted",
          "type": "bool"
        }
      ],
      "stateMutability": "view",
      "type": "function"
    }
  ],
  "bytecode": "0x60806040523480156200001157600080fd5b506200005d6040518060400160405280601b81526020017f536c616d20506f737420686173206265656e206465706c6f79656400000000008152506200006360201b62000a5f1760201c565b620001f7565b62000103816040516024016200007a919062000170565b6040516020818303038152906040527f41304fac000000000000000000000000000000000000000000000000000000007bffffffffffffffffffffffffffffffffffffffffffffffffffffffff19166020820180517bffffffffffffffffffffffffffffffffffffffffffffffffffffffff83818316178352505050506200010660201b60201c565b50565b60008151905060006a636f6e736f6c652e6c6f679050602083016000808483855afa5050505050565b60006200013c8262000194565b6200014881856200019f565b93506200015a818560208601620001b0565b6200016581620001e6565b840191505092915050565b600060208201905081810360008301526200018c81846200012f565b905092915050565b600081519050919050565b600082825260208201905092915050565b60005b83811015620001d0578082015181840152602081019050620001b3565b83811115620001e0576000848401525b50505050565b6000601f19601f8301169050919050565b61162980620002076000396000f3fe608060405234801561001057600080fd5b506004361061007d5760003560e01c80635fe226b41161005b5780635fe226b4146100d857806382e66a8a146100f65780638ee93cf314610114578063a3ec138d146101305761007d565b80630121b93f14610082578063305611001461009e57806351ec4285146100bc575b600080fd5b61009c60048036038101906100979190610da4565b610161565b005b6100a66102f5565b6040516100b3919061110e565b60405180910390f35b6100d660048036038101906100d19190610da4565b61045a565b005b6100e061060f565b6040516100ed9190611239565b60405180910390f35b6100fe610618565b60405161010b9190611217565b60405180910390f35b61012e60048036038101906101299190610d63565b61088c565b005b61014a60048036038101906101459190610d3a565b610a2e565b604051610158929190611254565b60405180910390f35b6000600260003373ffffffffffffffffffffffffffffffffffffffff1673ffffffffffffffffffffffffffffffffffffffff16815260200190815260200160002090508060010160009054906101000a900460ff16156101f6576040517f08c379a00000000000000000000000000000000000000000000000000000000081526004016101ed906111f7565b60405180910390fd5b600180549050821061023d576040517f08c379a0000000000000000000000000000000000000000000000000000000008152600401610234906111d7565b60405180910390fd5b60018160010160006101000a81548160ff02191690831515021790555081816000018190555060005b6001805490508110156102f057828114156102dd57600181815481106102b5577f4e487b7100000000000000000000000000000000000000000000000000000000600052603260045260246000fd5b906000526020600020906005020160040160008154809291906102d7906114de565b91905055505b80806102e8906114de565b915050610266565b505050565b60606001805480602002602001604051908101604052809291908181526020016000905b8282101561045157838290600052602060002090600502016040518060a0016040529081600082015481526020016001820160009054906101000a900473ffffffffffffffffffffffffffffffffffffffff1673ffffffffffffffffffffffffffffffffffffffff1673ffffffffffffffffffffffffffffffffffffffff1681526020016002820180546103ac906114ac565b80601f01602080910402602001604051908101604052809291908181526020018280546103d8906114ac565b80156104255780601f106103fa57610100808354040283529160200191610425565b820191906000526020600020905b81548152906001019060200180831161040857829003601f168201915b505050505081526020016003820154815260200160048201548152505081526020019060010190610319565b50505050905090565b6000610464610618565b90506000600260003373ffffffffffffffffffffffffffffffffffffffff1673ffffffffffffffffffffffffffffffffffffffff16815260200190815260200160002090508060010160009054906101000a900460ff166104fa576040517f08c379a00000000000000000000000000000000000000000000000000000000081526004016104f190611197565b60405180910390fd5b81600001518160000154141561050f57600080fd5b6001805490508310610556576040517f08c379a000000000000000000000000000000000000000000000000000000000815260040161054d906111d7565b60405180910390fd5b60008160010160006101000a81548160ff02191690831515021790555082816000018190555060005b60018054905081101561060957838114156105f657600181815481106105ce577f4e487b7100000000000000000000000000000000000000000000000000000000600052603260045260246000fd5b906000526020600020906005020160040160008154809291906105f090611482565b91905055505b8080610601906114de565b91505061057f565b50505050565b60008054905090565b610620610bc0565b600260003373ffffffffffffffffffffffffffffffffffffffff1673ffffffffffffffffffffffffffffffffffffffff16815260200190815260200160002060010160009054906101000a900460ff166106af576040517f08c379a00000000000000000000000000000000000000000000000000000000081526004016106a6906111b7565b60405180910390fd5b6106b7610bc0565b60005b6001805490508110156108845780600260003373ffffffffffffffffffffffffffffffffffffffff1673ffffffffffffffffffffffffffffffffffffffff168152602001908152602001600020600001541415610871576001818154811061074b577f4e487b7100000000000000000000000000000000000000000000000000000000600052603260045260246000fd5b90600052602060002090600502016040518060a0016040529081600082015481526020016001820160009054906101000a900473ffffffffffffffffffffffffffffffffffffffff1673ffffffffffffffffffffffffffffffffffffffff1673ffffffffffffffffffffffffffffffffffffffff1681526020016002820180546107d4906114ac565b80601f0160208091040260200160405190810160405280929190818152602001828054610800906114ac565b801561084d5780601f106108225761010080835404028352916020019161084d565b820191906000526020600020905b81548152906001019060200180831161083057829003601f168201915b50505050508152602001600382015481526020016004820154815250509150610884565b808061087c906114de565b9150506106ba565b508091505090565b6108cc6040518060400160405280601581526020017f257320706f737420772f206d65737361676520257300000000000000000000008152503383610af8565b60016040518060a0016040528060005481526020013373ffffffffffffffffffffffffffffffffffffffff168152602001838152602001428152602001600081525090806001815401808255809150506001900390600052602060002090600502016000909190919091506000820151816000015560208201518160010160006101000a81548173ffffffffffffffffffffffffffffffffffffffff021916908373ffffffffffffffffffffffffffffffffffffffff16021790555060408201518160020190805190602001906109a4929190610c05565b50606082015181600301556080820151816004015550503373ffffffffffffffffffffffffffffffffffffffff167fe535a02a01920b38061e7785d5f3d4688d895a51cc21bb9e09b59a11d3befcfb60005483426000604051610a0a949392919061127d565b60405180910390a26001600080828254610a249190611390565b9250508190555050565b60026020528060005260406000206000915090508060000154908060010160009054906101000a900460ff16905082565b610af581604051602401610a739190611130565b6040516020818303038152906040527f41304fac000000000000000000000000000000000000000000000000000000007bffffffffffffffffffffffffffffffffffffffffffffffffffffffff19166020820180517bffffffffffffffffffffffffffffffffffffffffffffffffffffffff8381831617835250505050610b97565b50565b610b92838383604051602401610b1093929190611152565b6040516020818303038152906040527fe0e9ad4f000000000000000000000000000000000000000000000000000000007bffffffffffffffffffffffffffffffffffffffffffffffffffffffff19166020820180517bffffffffffffffffffffffffffffffffffffffffffffffffffffffff8381831617835250505050610b97565b505050565b60008151905060006a636f6e736f6c652e6c6f679050602083016000808483855afa5050505050565b6040518060a0016040528060008152602001600073ffffffffffffffffffffffffffffffffffffffff1681526020016060815260200160008152602001600081525090565b828054610c11906114ac565b90600052602060002090601f016020900481019282610c335760008555610c7a565b82601f10610c4c57805160ff1916838001178555610c7a565b82800160010185558215610c7a579182015b82811115610c79578251825591602001919060010190610c5e565b5b509050610c879190610c8b565b5090565b5b80821115610ca4576000816000905550600101610c8c565b5090565b6000610cbb610cb6846112fa565b6112c9565b905082815260208101848484011115610cd357600080fd5b610cde848285611440565b509392505050565b600081359050610cf5816115c5565b92915050565b600082601f830112610d0c57600080fd5b8135610d1c848260208601610ca8565b91505092915050565b600081359050610d34816115dc565b92915050565b600060208284031215610d4c57600080fd5b6000610d5a84828501610ce6565b91505092915050565b600060208284031215610d7557600080fd5b600082013567ffffffffffffffff811115610d8f57600080fd5b610d9b84828501610cfb565b91505092915050565b600060208284031215610db657600080fd5b6000610dc484828501610d25565b91505092915050565b6000610dd98383611004565b905092915050565b610dea816113e6565b82525050565b610df9816113e6565b82525050565b6000610e0a8261133a565b610e14818561135d565b935083602082028501610e268561132a565b8060005b85811015610e625784840389528151610e438582610dcd565b9450610e4e83611350565b925060208a01995050600181019050610e2a565b50829750879550505050505092915050565b610e7d816113f8565b82525050565b610e8c8161142e565b82525050565b6000610e9d82611345565b610ea7818561136e565b9350610eb781856020860161144f565b610ec0816115b4565b840191505092915050565b6000610ed682611345565b610ee0818561137f565b9350610ef081856020860161144f565b610ef9816115b4565b840191505092915050565b6000610f11600e8361137f565b91507f486173206e6f7420766f7465642e0000000000000000000000000000000000006000830152602082019050919050565b6000610f51600d8361137f565b91507f486173206e6f7420766f746564000000000000000000000000000000000000006000830152602082019050919050565b6000610f9160188361137f565b91507f49646561496e64657820646f6573206e6f7420657869737400000000000000006000830152602082019050919050565b6000610fd1600a8361137f565b91507f48617320766f7465642e000000000000000000000000000000000000000000006000830152602082019050919050565b600060a08301600083015161101c60008601826110f0565b50602083015161102f6020860182610de1565b50604083015184820360408601526110478282610e92565b915050606083015161105c60608601826110f0565b50608083015161106f60808601826110f0565b508091505092915050565b600060a08301600083015161109260008601826110f0565b5060208301516110a56020860182610de1565b50604083015184820360408601526110bd8282610e92565b91505060608301516110d260608601826110f0565b5060808301516110e560808601826110f0565b508091505092915050565b6110f981611424565b82525050565b61110881611424565b82525050565b600060208201905081810360008301526111288184610dff565b905092915050565b6000602082019050818103600083015261114a8184610ecb565b905092915050565b6000606082019050818103600083015261116c8186610ecb565b905061117b6020830185610df0565b818103604083015261118d8184610ecb565b9050949350505050565b600060208201905081810360008301526111b081610f04565b9050919050565b600060208201905081810360008301526111d081610f44565b9050919050565b600060208201905081810360008301526111f081610f84565b9050919050565b6000602082019050818103600083015261121081610fc4565b9050919050565b60006020820190508181036000830152611231818461107a565b905092915050565b600060208201905061124e60008301846110ff565b92915050565b600060408201905061126960008301856110ff565b6112766020830184610e74565b9392505050565b600060808201905061129260008301876110ff565b81810360208301526112a48186610ecb565b90506112b360408301856110ff565b6112c06060830184610e83565b95945050505050565b6000604051905081810181811067ffffffffffffffff821117156112f0576112ef611585565b5b8060405250919050565b600067ffffffffffffffff82111561131557611314611585565b5b601f19601f8301169050602081019050919050565b6000819050602082019050919050565b600081519050919050565b600081519050919050565b6000602082019050919050565b600082825260208201905092915050565b600082825260208201905092915050565b600082825260208201905092915050565b600061139b82611424565b91506113a683611424565b9250827fffffffffffffffffffffffffffffffffffffffffffffffffffffffffffffffff038211156113db576113da611527565b5b828201905092915050565b60006113f182611404565b9050919050565b60008115159050919050565b600073ffffffffffffffffffffffffffffffffffffffff82169050919050565b6000819050919050565b600061143982611424565b9050919050565b82818337600083830152505050565b60005b8381101561146d578082015181840152602081019050611452565b8381111561147c576000848401525b50505050565b600061148d82611424565b915060008214156114a1576114a0611527565b5b600182039050919050565b600060028204905060018216806114c457607f821691505b602082108114156114d8576114d7611556565b5b50919050565b60006114e982611424565b91507fffffffffffffffffffffffffffffffffffffffffffffffffffffffffffffffff82141561151c5761151b611527565b5b600182019050919050565b7f4e487b7100000000000000000000000000000000000000000000000000000000600052601160045260246000fd5b7f4e487b7100000000000000000000000000000000000000000000000000000000600052602260045260246000fd5b7f4e487b7100000000000000000000000000000000000000000000000000000000600052604160045260246000fd5b6000601f19601f8301169050919050565b6115ce816113e6565b81146115d957600080fd5b50565b6115e581611424565b81146115f057600080fd5b5056fea2646970667358221220a59302c516988e8742b619aa1ad244c04d46ac244fda3d4f0a58abb0d0466d9464736f6c63430008000033",
  "linkReferences": {},
  "deployedLinkReferences": {}
}